:020000040800F2
:1000000000200020A1120008DD040008DF04000821
:1000100000000000000000000000000000000000E0
:10002000000000000000000000000000E1040008E3
:100030000000000000000000E3040008E5040008E0
:10004000F1120008F1120008F1120008F112000884
:10005000F1120008F1120008F1120008F112000874
:10006000F1120008F1120008F1120008F112000864
:10007000F1120008F1120008F1120008F112000854
:10008000F1120008F112000800000000F11200084F
:10009000F1120008F1120008F1120008F112000834
:1000A000F1120008F1120008F1120008F112000824
:1000B000F112000800000000F1120008000000002A
:1000C000002243088B4274D303098B425FD3030A97
:1000D0008B4244D3030B8B4228D3030C8B420DD3AA
:1000E000FF22090212BA030C8B4202D31212090238
:1000F00065D0030B8B4219D300E0090AC30B8B4276
:1001000001D3CB03C01A5241830B8B4201D38B0323
:10011000C01A5241430B8B4201D34B03C01A5241C8
:10012000030B8B4201D30B03C01A5241C30A8B420B
:1001300001D3CB02C01A5241830A8B4201D38B02F6
:10014000C01A5241430A8B4201D34B02C01A52419A
:10015000030A8B4201D30B02C01A5241CDD2C3090C
:100160008B4201D3CB01C01A524183098B4201D388
:100170008B01C01A524143098B4201D34B01C01A73
:10018000524103098B4201D30B01C01A5241C308EB
:100190008B4201D3CB00C01A524183088B4201D35A
:1001A0008B00C01A524143088B4201D34B00C01A46
:1001B0005241411A00D20146524110467047FFE7B2
:1001C00001B5002000F006F802BDC0460029F7D0B6
:1001D00076E770477047C04610B5064C2378002B71
:1001E00007D1054B002B02D0044800E000BF0123DB
:1001F000237010BD0C000020000000004C1300080C
:10020000044B10B5002B03D00349044800E000BFA5
:1002100010BDC04600000000100000204C13000874
:1002200000B585B00C22002101A801F062F81E483B
:100230001E4B0360002343608360C36001220261A0
:1002400004214161037643768376C376C221FF3170
:10025000C16103629E39FF394354826200F0FCF9A8
:10026000002817D10523019380235B01029380238B
:100270005B0503930C4801A900F048FB00280CD152
:1002800006230193084801A900F040FB002807D18C
:1002900005B000BD00F06EF8E4E700F06BF8EFE7A2
:1002A00000F068F8F4E7C046280000200024014070
:1002B00010B588B004001422002103A801F019F839
:1002C0002268114B9A4201D008B010BD0F4B9A69B9
:1002D000802189000A439A619A690A400192019A31
:1002E0005A69802189020A435A615B690B40029373
:1002F000029B602303935D3B0493902003A9C005F8
:1003000000F0F2FBE0E7C04600240140001002408C
:1003100010B588B01422002103A800F0EAFF134BA7
:100320005A69802189020A435A615A690A40019236
:10033000019A5A698021C9020A435A615B690B40DC
:100340000293029B0A4C00228121200000F090FCC5
:1003500081230393803B049300230593069303A911
:10036000200000F0C1FB08B010BDC04600100240E4
:100370000004004872B6FEE710B590B030220021AC
:1003800004A800F0B6FF102410220021684600F0F7
:10039000B0FF12230493113B0793099308940A9426
:1003A00004A800F06BFC00280DD107230093002364
:1003B0000193029303930021684600F0D7FE0028C2
:1003C00003D110B010BDFFF7D5FFFFF7D3FF00003A
:1003D00010B584B004000C22002101A800F089FFB0
:1003E000002C0FD00523019380235B01029380230F
:1003F0005B050393064801A900F088FA002804D1A0
:1004000004B010BD06230193EEE7FFF7B3FFC0462B
:100410002800002010B500F093F8FFF7ADFFFFF7BC
:1004200077FFFFF7FDFE15E0002280211A4800F05B
:100430001FFC1A4B00221A70174C012201212000C8
:1004400000F016FC164800F09DF800220121200063
:1004500000F00EFC114B1878FFF7BAFF012000F0F6
:1004600091F8104800F0BAF90E48052100F0E6F9BD
:100470000028F9D10B4800F045FA0B4B1880074BC8
:100480001B78002BD0D101228021034800F0F0FB23
:10049000024B01221A70CFE70004004868000020D8
:1004A00088130000280000206A00002082B00A4B58
:1004B000996901221143996199690A400092009A51
:1004C000DA69802149050A43DA61DB690B4001934F
:1004D000019B02B07047C04600100240FEE7FEE7F5
:1004E0007047704710B500F03BF810BD7047000032
:1004F00010B504000F4B1978FA208000FFF7E0FDDB
:1005000001000D4B1868FFF7DBFD00F0E9FA002849
:100510000DD1032C01D901200AE001300022210075
:10052000404200F0D9FA054B1C60002000E0012099
:1005300010BDC0460400002000000020080000207C
:1005400010B5064A136810210B4313600320FFF710
:10055000CFFFFFF7ABFF002010BDC04600200240D8
:10056000034A1168034B1B785B1813607047C04641
:100570006C00002004000020014B18687047C04642
:100580006C00002070B50400FFF7F6FF0500631C47
:1005900002D0044B1B78E418FFF7EEFF401BA0428B
:1005A000FAD370BD0400002030B583B004000023EE
:1005B00001930368996803220A40012A14D09968BC
:1005C000224A114218D19A6801210A439A60204BAD
:1005D00018682049FFF774FD0190019B002B15D08E
:1005E000019B013B0193F8E71A68D2072BD4DA6824
:1005F0001204E4D5002024E0A36B10221343A3636C
:10060000E36B0F3A1343E36301201AE0FFF7B4FFF3
:10061000050023681B68DB0712D4FFF7ADFF401B02
:100620000228F6D923681B68DB07F2D4A36B1022DB
:100630001343A363E36B0F3A1343E363012000E02A
:10064000002003B030BD0020FBE7C046170000804B
:100650000000002040420F0070B5041E00D1B4E03D
:10066000836B002B00D180E0A36BDB0600D5A6E0F6
:1006700023689A68042108001040114200D09EE0CF
:10068000A26B53490A400631FF310A43A2639968BD
:1006900003220A40012A6ED0DA6818218A43A16831
:1006A0000A43DA60226813699B009B0861680B4368
:1006B00013612268D36847490B40D360237E9B03B4
:1006C000627ED2031343A17E4A031343A26A012A26
:1006D00058D0802252011343E26813432269022A50
:1006E00052D003432422A25C52001343E27E012A2B
:1006F0004CD0E269C221FF318A4202D0216A0A430A
:1007000013432168CA681A43CA60E26A8021490516
:100710008A420DD0012A0BD0022A09D0032A07D021
:10072000042A05D0052A03D0062A01D0072A0AD1B7
:100730002068416907229143416120684169E56A67
:100740002A400A4342612268D26823490A409A42F9
:100750002BD0A36B12229343023A1343A363E36BA0
:100760000F3A1343E36301202EE0C3633422835422
:10077000FFF79EFD78E71A68D2079AD4DA68120468
:1007800097D489E70200A6E70420AAE7002903D14D
:10079000802252021343ACE7A26B20210A43A263DA
:1007A000E26B1F390A43E263A3E70023E363A36B11
:1007B00003229343023A1343A363002004E0A36B94
:1007C00010221343A363012070BD0120FCE7C04643
:1007D000FDFEFFFF1902FEFFE7FF3F8310B5040097
:1007E00003689B685B0723D43423C35C012B21D0AF
:1007F00034230122C254437E012B14D10020A26B6A
:100800000D4B1A4080235B001343A3630023E36373
:100810003422A3542368183A1A602268936804218A
:100820000B43936010BDFFF7BFFE0028FAD1E6E747
:100830000220F7E70220F5E7FEF0FFFFF8B504001D
:100840000E004769082F04D00368DB68DB0718D463
:100850000C27FFF791FE050023681A6817421FD185
:10086000731CF9D0002E15D123681B681F42F3D1E9
:10087000A36B04221343A36334230022E254032016
:1008800032E0836B20221343836334230022C2545B
:10089000012029E0FFF770FE401BB042DCD9E3E7FE
:1008A000A16B802292000A43A263D968C022120180
:1008B000114213D1A27E002A10D11A6812070DD559
:1008C0009A68520711D45A680C218A435A60A36B64
:1008D0000B4A13400432FF321343A363207E0028E7
:1008E0000CD123680C221A60F8BDA36B202213439D
:1008F000A363E36B1F3A1343E363EFE70020F3E7DF
:10090000FEFEFFFF0368186C7047000030B583B02F
:100910000400002301933433C35C012B00D17FE03A
:1009200034230122C254026893685B076AD4486882
:100930003C4B98424BD0936A0D680120A84003437A
:100940009362E36A80225205934213D0013B062B47
:1009500010D988682268556907232B40984209D02E
:100960005069072398435061206842698D682B4085
:10097000134343610B681A00103A022A4CD82A4AE2
:100980001268102B0ED0112B09D080235B04134367
:10099000254A13600B68102B07D0002037E0802316
:1009A000DB03F4E780231B04F1E7204B18682049A0
:1009B000FFF786FB83001B185B00019302E0019B9D
:1009C000013B0193019B002BF9D100201FE0936AAA
:1009D0000D680120A840834393620B681A00103A07
:1009E000022A1BD8104A1268102B09D0112B05D0EF
:1009F000104B13400C4A1360002008E00E4BF8E740
:100A00000E4BF6E7836B20221343836301203423CC
:100A10000022E25403B030BD0020F8E70020F6E7E2
:100A20000220F7E701100000082701400000002025
:100A300040420F00FFFFFFFEFFFFBFFFFFFF7FFFF2
:100A400070B5002811DB8308134DC0339B005C593F
:100A500003221040C000FC3216008640B4438901D6
:100A60000A40824022435A5170BD0F230340083B85
:100A70009B0806339B00094A944663445C68032242
:100A80001040C000FC3215008540AC4389010A408B
:100A9000824022435A60E7E700E100E000ED00E019
:100AA000013880235B0498420FD2094A50600948FC
:100AB000036A1B021B0AC02109060B4303620023C1
:100AC000936007331360002070470120FCE7C046A5
:100AD00010E000E000ED00E010B5FFF7B1FF10BD41
:100AE00010B5FFF7DDFF10BDF0B583B0002356E071
:100AF00086685F000324BC40A643CC68BC403443F6
:100B00008460446894434E683609012232409A401A
:100B10002243426053E0DE080836B60037580532FB
:100B20001A4092000F249440A7430C69944022007D
:100B30003A43325056E0032600E00026A640340037
:100B40003C4302329200444E9451444A9768EA432F
:100B50003E00AE434C68E40201D53E002E433F4CBC
:100B6000A660E7683E0016404C68A40201D53E002E
:100B70002E433A4CE66067683E0016404C68A4037A
:100B800001D53E002E43354C6660266832404C68E5
:100B9000E40301D52A003243304C226001330C6853
:100BA0002200DA4056D001229A4025001540144216
:100BB000F4D04E6803243440013C012C98D94C6891
:100BC00003222240032A08D0C4685E000322B240F8
:100BD00094438A68B2402243C2604C680322224098
:100BE000022A98D004685E0003221700B740BC4375
:100BF0004F683A40B240224302604C68C0229202E1
:100C00001442CBD0164CA66901221643A661A469F2
:100C100022400192019A9A08941CA4000E4EA759F2
:100C200003241C40A4000F26A640B7439026F605D7
:100C3000B04282D00B4EB04208D00B4EB04207D02B
:100C40000A4EB04200D176E7052677E7012675E720
:100C5000022673E703B0F0BD00000140000401402C
:100C6000001002400004004800080048000C004842
:100C7000002A01D0816170478162FCE770B582B0C3
:100C8000041E00D12EE20368DB0726D5AE4B5A685E
:100C90000C231340042B18D0AB4B5A680C23134081
:100CA000082B0ED06368012B3CD0002B51D1A64BF2
:100CB0001A68A6490A401A601A68A5490A401A60CB
:100CC00036E0A14B5B68DB03ECD59F4B1B689B03B5
:100CD00003D56368002B00D107E223689B0772D518
:100CE000994B5B680C221A425DD0974B5A680C23D3
:100CF0001340082B53D0E368002B00D185E0924AC3
:100D0000136801210B431360FFF736FC05008E4B7F
:100D10001B689B0770D4FFF72FFC401B0228F6D9F5
:100D20000320E0E1884A116880235B020B431360D3
:100D30006368002B25D0FFF71FFC0500824B1B6862
:100D40009B03CAD4FFF718FC401B6428F6D9032084
:100D5000C9E1052B09D07C4B1A687C490A401A600E
:100D60001A687B490A401A60E2E7774B19688022CB
:100D7000D2020A431A601968802252020A431A609A
:100D8000D6E7FFF7F9FB05006F4B1B689B03A4D563
:100D9000FFF7F2FB401B6428F6D90320A3E16A4B5E
:100DA0005B68DB03A7D4684B1B689B0703D5E3682C
:100DB000012B00D09BE164490B68F8229343226920
:100DC000D20013430B6023681B0744D5E369002B53
:100DD0002ED05D4A536A01210B435362FFF7CCFBCF
:100DE0000500594B5B6A9B0735D4FFF7C5FB401BD9
:100DF0000228F6D9032076E153490B68F822934381
:100E00002269D20013430B60DDE74F4A13680121CA
:100E10008B431360FFF7B0FB05004B4B1B689B0730
:100E2000D1D5FFF7A9FB401B0228F6D903205AE1D0
:100E3000454A536A01218B435362FFF79DFB05002E
:100E4000414B5B6A9B0706D5FFF796FB401B0228C8
:100E5000F6D9032047E123685B0700D480E03A4BD2
:100E6000DB69DB001DD4384BDA69802149050A4370
:100E7000DA61DB690B400193019B0125354B1B684F
:100E8000DB0510D5A368012B21D0002B36D12E4BCA
:100E90001A6A01218A431A621A6A03318A431A6262
:100EA0001AE00025EAE72B4A116880235B000B4318
:100EB0001360FFF761FB0600264B1B68DB05E1D4DE
:100EC000FFF75AFB801B6428F6D903200BE11E4A6A
:100ED000136A01210B431362A368002B24D0FFF790
:100EE0004BFB0600184B1B6A9B0737D4FFF744FBEC
:100EF000801B194B9842F5D90320F4E0052B09D04B
:100F0000114B1A6A01218A431A621A6A03318A4311
:100F10001A62E1E70C4B1A6A04210A431A621A6A40
:100F200003390A431A62D7E7FFF726FB0600064B90
:100F30001B6A9B0712D5FFF71FFB801B064B9842CD
:100F4000F5D90320CFE0C04600100240FFFFFEFFAE
:100F5000FFFFFBFF0070004088130000012D33D01D
:100F60002368DB0610D56369012B33D0053351D1DB
:100F7000654A536B04218B435363536BF4318B43AA
:100F8000A169C9000B435363236A002B00D1B0E071
:100F90005D4A51680C220A40082A00D18AE0022BDF
:100FA0004FD0594A136859490B401360FFF7E4FAD0
:100FB0000400554B1B689B017AD5FFF7DDFA001B37
:100FC0000228F6D903208EE04F4AD36950490B40DE
:100FD000D361C5E74C4B5A6B04210A435A635A6BE1
:100FE00003390A435A63FFF7C7FA0500464B5B6BA8
:100FF0009B0706D4FFF7C0FA401B0228F6D903204E
:1010000071E041494B6BF8229343A269D20013432C
:101010004B63B9E73C4B5A6B04210A435A635A6B42
:1010200003398A435A63FFF7A7FA0500364B5B6B17
:101030009B07A9D5FFF7A0FA401B0228F6D9032089
:1010400051E0314A136831490B401360FFF794FABD
:1010500005002D4B1B689B0106D5FFF78DFA401B41
:101060000228F6D903203EE0274BDA6A0F218A4393
:10107000E16A0A43DA625A6826490A40A16A606A4C
:1010800001430A435A601968802252040A431A60D5
:10109000FFF772FA04001C4B1B689B0106D4FFF794
:1010A0006BFA001B0228F6D903201CE000201AE08E
:1010B000002018E0012B1ED0134B5A68D86A8023F9
:1010C0005B021340616A8B4217D10F230340E16A30
:1010D0008B4214D1F0239B031A40A36A9A4210D189
:1010E000002000E0012002B070BD0120FBE70120DC
:1010F000F9E70020F7E70120F5E70120F3E70120F9
:10110000F1E70120EFE7C04600100240FFFFFFFEBD
:10111000FFFFFFEFFFFFC2FF10B5104B5A680C2313
:101120001340082B01D00E4810BD910C0733194015
:101130000C48445C0949C96A0B400B49C95CD2039D
:1011400004D50748FEF7BCFF6043EDE76201121BC0
:1011500093019B1ADB001B191802E5E700100240FF
:1011600000127A00841300087413000870B504009C
:101170000D00002800D17EE0434B1A680123134084
:101180008B420AD240490B68012293432B430B60E8
:101190000B681A40AA4200D06FE023689A070ED568
:1011A0005B0705D5394A5168E023DB000B435360E8
:1011B000364A5368F0218B43A1680B435360236880
:1011C000DB072DD56368012B1ED0022B22D02F4ABE
:1011D0001268920753D52D494A680320824313436E
:1011E0004B60FFF7C9F90600284B5B680C221A40D8
:1011F00063689B009A4213D0FFF7BEF9801B244B13
:101200009842F1D9032035E0204A12689203E2D4D3
:1012100001202FE01D4A12689201DCD4012029E050
:10122000194B1A6801231340AB4209D916490B68C0
:10123000012293432B430B600B681A40AA4220D132
:1012400023685B0706D5114A536812490B40E168D1
:101250000B435360FFF760FF0C4B5A6812090F23D2
:1012600013400D4AD35CD8400C4B18600320FFF7A5
:101270003FF9002070BD0120FCE70120FAE70120C2
:10128000F8E70120F6E7C0460020024000100240C7
:1012900088130000FFF8FFFF64130008000000201F
:1012A0000D488546FFF722F90C480D490D4A0023E9
:1012B00002E0D458C4500433C4188C42F9D30A4A0B
:1012C0000A4C002301E013600432A242FBD300F079
:1012D00019F8FFF79FF8FEE700200020000000202B
:1012E0000C0000209C1300080C000020700000205F
:1012F000FEE703008218934200D170471970013352
:10130000F9E7000070B500260C4C0D4D641BA410CD
:10131000A64209D1002600F019F80A4C0A4D641BB8
:10132000A410A64205D170BDB300EB589847013612
:10133000EEE7B300EB5898470136F2E79413000844
:10134000941300089813000894130008F8B5C046D9
:10135000F8BC08BC9E467047F8B5C046F8BC08BC4F
:041360009E467047EE
:101364000000000000000000010203040607080951
:101374000102030405060708090A0B0C0D0E0F10E1
:1013840002030405060708090A0B0C0D0E0F1010C2
:04139400010200084A
:04139800D90100086F
:0C139C0000127A000100000004000000B4
:04000005080012A13C
:00000001FF
